{
  "contractName": "DecentralizedTwitter",
  "abi": [
    {
      "anonymous": false,
      "inputs": [
        {
          "indexed": false,
          "internalType": "int256",
          "name": "postId",
          "type": "int256"
        },
        {
          "indexed": false,
          "internalType": "uint256",
          "name": "userId",
          "type": "uint256"
        }
      ],
      "name": "PostCreated",
      "type": "event"
    },
    {
      "anonymous": false,
      "inputs": [
        {
          "indexed": false,
          "internalType": "uint256",
          "name": "userId",
          "type": "uint256"
        },
        {
          "indexed": false,
          "internalType": "address",
          "name": "username",
          "type": "address"
        },
        {
          "indexed": false,
          "internalType": "bool",
          "name": "exists",
          "type": "bool"
        }
      ],
      "name": "UserCreated",
      "type": "event"
    },
    {
      "constant": true,
      "inputs": [],
      "name": "name",
      "outputs": [
        {
          "internalType": "string",
          "name": "",
          "type": "string"
        }
      ],
      "payable": false,
      "stateMutability": "view",
      "type": "function"
    },
    {
      "constant": false,
      "inputs": [
        {
          "internalType": "int256",
          "name": "postId",
          "type": "int256"
        },
        {
          "internalType": "uint256",
          "name": "userId",
          "type": "uint256"
        }
      ],
      "name": "createPost",
      "outputs": [],
      "payable": false,
      "stateMutability": "nonpayable",
      "type": "function"
    },
    {
      "constant": false,
      "inputs": [
        {
          "internalType": "uint256",
          "name": "userId",
          "type": "uint256"
        }
      ],
      "name": "createUser",
      "outputs": [],
      "payable": false,
      "stateMutability": "nonpayable",
      "type": "function"
    },
    {
      "constant": true,
      "inputs": [],
      "name": "getPosts",
      "outputs": [
        {
          "internalType": "int256[]",
          "name": "postIds",
          "type": "int256[]"
        }
      ],
      "payable": false,
      "stateMutability": "view",
      "type": "function"
    },
    {
      "constant": true,
      "inputs": [
        {
          "internalType": "uint256",
          "name": "userId",
          "type": "uint256"
        }
      ],
      "name": "getPostsForUser",
      "outputs": [
        {
          "internalType": "int256[]",
          "name": "postIds",
          "type": "int256[]"
        }
      ],
      "payable": false,
      "stateMutability": "view",
      "type": "function"
    },
    {
      "constant": true,
      "inputs": [
        {
          "internalType": "int256",
          "name": "idForPostBeingSearched",
          "type": "int256"
        }
      ],
      "name": "getPost",
      "outputs": [
        {
          "internalType": "int256",
          "name": "postId",
          "type": "int256"
        },
        {
          "internalType": "uint256",
          "name": "userId",
          "type": "uint256"
        }
      ],
      "payable": false,
      "stateMutability": "view",
      "type": "function"
    },
    {
      "constant": true,
      "inputs": [],
      "name": "getUser",
      "outputs": [
        {
          "internalType": "uint256",
          "name": "userId",
          "type": "uint256"
        },
        {
          "internalType": "address",
          "name": "username",
          "type": "address"
        },
        {
          "internalType": "bool",
          "name": "exists",
          "type": "bool"
        }
      ],
      "payable": false,
      "stateMutability": "view",
      "type": "function"
    }
  ],
  "bytecode": "0x60806040526040518060400160405280601481526020017f446563656e7472616c697a6564547769747465720000000000000000000000008152506000908051906020019061004f929190610062565b5034801561005c57600080fd5b50610107565b828054600181600116156101000203166002900490600052602060002090601f016020900481019282601f106100a357805160ff19168380011785556100d1565b828001600101855582156100d1579182015b828111156100d05782518255916020019190600101906100b5565b5b5090506100de91906100e2565b5090565b61010491905b808211156101005760008160009055506001016100e8565b5090565b90565b610abe806101166000396000f3fe608060405234801561001057600080fd5b506004361061007d5760003560e01c806341f3004a1161005b57806341f3004a146101d1578063832880e71461023057806398b926c31461028c578063ffbdff66146102c45761007d565b806306fdde031461008257806308c71f2f14610105578063282cbf9a1461014e575b600080fd5b61008a6102f2565b6040518080602001828103825283818151815260200191508051906020019080838360005b838110156100ca5780820151818401526020810190506100af565b50505050905090810190601f1680156100f75780820380516001836020036101000a031916815260200191505b509250505060405180910390f35b6101316004803603602081101561011b57600080fd5b8101908080359060200190929190505050610390565b604051808381526020018281526020019250505060405180910390f35b61017a6004803603602081101561016457600080fd5b810190808035906020019092919050505061046b565b6040518080602001828103825283818151815260200191508051906020019060200280838360005b838110156101bd5780820151818401526020810190506101a2565b505050509050019250505060405180910390f35b6101d961047f565b6040518080602001828103825283818151815260200191508051906020019060200280838360005b8381101561021c578082015181840152602081019050610201565b505050509050019250505060405180910390f35b610238610492565b604051808481526020018373ffffffffffffffffffffffffffffffffffffffff1673ffffffffffffffffffffffffffffffffffffffff16815260200182151515158152602001935050505060405180910390f35b6102c2600480360360408110156102a257600080fd5b810190808035906020019092919080359060200190929190505050610581565b005b6102f0600480360360208110156102da57600080fd5b81019080803590602001909291905050506106d5565b005b60008054600181600116156101000203166002900480601f0160208091040260200160405190810160405280929190818152602001828054600181600116156101000203166002900480156103885780601f1061035d57610100808354040283529160200191610388565b820191906000526020600020905b81548152906001019060200180831161036b57829003601f168201915b505050505081565b60008061039b610a36565b60405180604001604052807fffffffffffffffffffffffffffffffffffffffffffffffffffffffffffffffff81526020016000815250905060008090505b6002805490508110156104565784600282815481106103f457fe5b9060005260206000209060020201600001541415610449576002818154811061041957fe5b90600052602060002090600202016040518060400160405290816000820154815260200160018201548152505091505b80806001019150506103d9565b50806000015181602001519250925050915091565b60606104786000836108a9565b9050919050565b606061048d600160006108a9565b905090565b600080600061049f610a50565b600160003373ffffffffffffffffffffffffffffffffffffffff1673ffffffffffffffffffffffffffffffffffffffff168152602001908152602001600020604051806060016040529081600082015481526020016001820160009054906101000a900473ffffffffffffffffffffffffffffffffffffffff1673ffffffffffffffffffffffffffffffffffffffff1673ffffffffffffffffffffffffffffffffffffffff1681526020016001820160149054906101000a900460ff161515151581525050905080600001518160200151826040015193509350935050909192565b6000339050600160008273ffffffffffffffffffffffffffffffffffffffff1673ffffffffffffffffffffffffffffffffffffffff16815260200190815260200160002060010160149054906101000a900460ff168015610623575081600160008373ffffffffffffffffffffffffffffffffffffffff1673ffffffffffffffffffffffffffffffffffffffff16815260200190815260200160002060000154145b61062c57600080fd5b610634610a36565b60405180604001604052808581526020018481525090506002819080600181540180825580915050906001820390600052602060002090600202016000909192909190915060008201518160000155602082015181600101555050507fe7af7924e12e1a495fab5465a91aa631f9344f6a3c5c3780d6a4893cd24f20ef8484604051808381526020018281526020019250505060405180910390a150505050565b600033905060001515600160008373ffffffffffffffffffffffffffffffffffffffff1673ffffffffffffffffffffffffffffffffffffffff16815260200190815260200160002060010160149054906101000a900460ff1615151461073a57600080fd5b610742610a50565b60405180606001604052808481526020018373ffffffffffffffffffffffffffffffffffffffff16815260200160011515815250905080600160008473ffffffffffffffffffffffffffffffffffffffff1673ffffffffffffffffffffffffffffffffffffffff1681526020019081526020016000206000820151816000015560208201518160010160006101000a81548173ffffffffffffffffffffffffffffffffffffffff021916908373ffffffffffffffffffffffffffffffffffffffff16021790555060408201518160010160146101000a81548160ff0219169083151502179055509050507f88002c8a3d903e0b9ca6d4d478f00f4936fd2c9a081e9b47a0360112029d037683836001604051808481526020018373ffffffffffffffffffffffffffffffffffffffff1673ffffffffffffffffffffffffffffffffffffffff16815260200182151515158152602001935050505060405180910390a1505050565b606060006108b784846109b8565b90506000809050816040519080825280602002602001820160405280156108ed5781602001602082028038833980820191505090505b509250600060016002805490500390505b60008114610962576109118682876109fb565b15610954576002818154811061092357fe5b90600052602060002090600202016000015484838151811061094157fe5b6020026020010181815250506001820191505b8080600190039150506108fe565b5061096f856000866109fb565b156109ad57600260008154811061098257fe5b9060005260206000209060020201600001548382815181106109a057fe5b6020026020010181815250505b829250505092915050565b600080905060008090505b6002805490508110156109f4576109db8482856109fb565b156109e7576001820191505b80806001019150506109c3565b5092915050565b6000600115158415151480610a2d57508160028481548110610a1957fe5b906000526020600020906002020160010154145b90509392505050565b604051806040016040528060008152602001600081525090565b604051806060016040528060008152602001600073ffffffffffffffffffffffffffffffffffffffff168152602001600015158152509056fea265627a7a7231582024f25d5c3a25751ef61915ede06532a42621e70344e8c87d2c780206dee9d84664736f6c63430005100032",
  "source": "pragma solidity >=0.4.22 <0.6.0;\r\n\r\n/**\r\n * Contract responsible for the encapsulating\r\n * the primitive implementation of what a decentralized twitter\r\n * would look like.  At a high level, this involves creating\r\n * new metadata entries (i.e. users and posts) and getting said metadata.\r\n * Notice, metadata is used here, as only reference values are stored\r\n * on the blockchain, while the actual content is stored on IPFS.\r\n */\r\ncontract DecentralizedTwitter {\r\n  /******************************\r\n   * State\r\n   ******************************/\r\n\r\n  string public name = \"DecentralizedTwitter\";\r\n  mapping (address => User) users;\r\n  Post[] posts;\r\n\r\n  /******************************\r\n   * Structs\r\n   ******************************/\r\n\r\n  /**\r\n   * @description struct representing a post\r\n   */\r\n  struct Post {\r\n    int postId;\r\n    uint userId;\r\n  }\r\n\r\n  /**\r\n   * @description struct representing a user;\r\n   * for sake of simplicity, the address is used\r\n   * for username\r\n   */\r\n  struct User {\r\n    uint userId;\r\n    address username;\r\n    bool exists;\r\n  }\r\n\r\n  /******************************\r\n   * Events\r\n   ******************************/\r\n\r\n  event UserCreated(\r\n    uint userId,\r\n    address username,\r\n    bool exists\r\n  );\r\n\r\n  event PostCreated(\r\n    int postId,\r\n    uint userId\r\n  );\r\n\r\n  /******************************\r\n   * Methods\r\n   ******************************/\r\n\r\n  function createPost(int postId, uint userId) public {\r\n    address sender = msg.sender;\r\n    require(users[sender].exists && users[sender].userId == userId);\r\n    Post memory newPost = Post(postId, userId);\r\n    posts.push(newPost);\r\n    emit PostCreated(postId, userId);\r\n  }\r\n\r\n  function createUser(uint userId) public {\r\n    address sender = msg.sender;\r\n    require(users[sender].exists == false);\r\n    User memory newUser = User(userId, sender, true);\r\n    users[sender] = newUser;\r\n    emit UserCreated(userId, sender, true);\r\n  }\r\n\r\n  function getPosts() public view returns (int[] memory postIds) {\r\n    postIds = getPostsForFeed(true, 0);\r\n  }\r\n\r\n  function getPostsForUser(uint userId) public view returns (int[] memory postIds) {\r\n    postIds = getPostsForFeed(false, userId);\r\n  }\r\n\r\n  function getPost(int idForPostBeingSearched) public view returns (int postId, uint userId) {\r\n    Post memory post = Post(-1, 0); // default\r\n\r\n    for (uint i = 0; i < posts.length; i++) {\r\n      if (posts[i].postId == idForPostBeingSearched) {\r\n        post = posts[i];\r\n      }\r\n    }\r\n\r\n    return (post.postId, post.userId);\r\n  }\r\n\r\n  function getUser() public view returns (uint userId, address username, bool exists) {\r\n    User memory user = users[msg.sender];\r\n    return (user.userId, user.username, user.exists);\r\n  }\r\n\r\n  /******************************\r\n   * Helpers\r\n   ******************************/\r\n\r\n  /**\r\n   * Useful function for telling the main private method below,\r\n   * which returns a dynamically length array, how many posts to expect.\r\n   */\r\n  function getNumberOfPosts(bool feedIsHome, uint userId) private view returns (uint numberOfPosts) {\r\n    numberOfPosts = 0;\r\n\r\n    for (uint i = 0; i < posts.length; i++) {\r\n      if (shouldIncludePostInFeed(feedIsHome, i, userId)) {\r\n        numberOfPosts = numberOfPosts + 1;\r\n      }\r\n    }\r\n  }\r\n\r\n  /**\r\n   * Interesting function reused for both home and profile views.\r\n   * It's responsible for getting all of the relevant post ids for a given feed,\r\n   * which again, can be profile or home feed.  Notice, it's interesting b/c\r\n   * the array is constructed in such a way that the newest posts need to be in\r\n   * the front of the array.  Thus, to do so, a backwards loop is used.\r\n   */\r\n  function getPostsForFeed(bool feedIsHome, uint userId) private view returns (int[] memory postIds) {\r\n    uint numberOfPosts = getNumberOfPosts(feedIsHome, userId);\r\n    uint counter = 0; // used for constructing array backwards, since push cannot be used; 0 based for index purposes\r\n\r\n    postIds = new int[](numberOfPosts);\r\n\r\n    for (uint i = posts.length - 1; i != 0; i--) {\r\n      if (shouldIncludePostInFeed(feedIsHome, i, userId)) {\r\n        postIds[counter] = posts[i].postId;\r\n        counter = counter + 1;\r\n      }\r\n    }\r\n\r\n    /**\r\n     * HACK: Used to check first index, since it is not checked above\r\n     */\r\n    if (shouldIncludePostInFeed(feedIsHome, 0, userId)) {\r\n      postIds[counter] = posts[0].postId;\r\n    }\r\n\r\n    return postIds;\r\n  }\r\n\r\n  /**\r\n   * Used to encapsulate the simple logic that is reused in multiple\r\n   * other private methods; it's also used to help provide context around\r\n   * what is happening in private functions above.\r\n   */\r\n  function shouldIncludePostInFeed(bool feedIsHome, uint postIndex, uint userId) private view returns (bool include) {\r\n    include = feedIsHome == true || posts[postIndex].userId == userId;\r\n  }\r\n}",
  "sourcePath": "C:/Users/bguillen/Documents/sandbox/dapp-pocs/d-twitter/contracts/DecentralizedTwitter.sol",
  "compiler": {
    "name": "solc",
    "version": "0.5.16+commit.9c3226ce.Emscripten.clang"
  },
  "schemaVersion": "3.2.3",
  "updatedAt": "2021-07-27T21:57:51.604Z",
  "devdoc": {
    "methods": {}
  },
  "userdoc": {
    "methods": {
      "createPost(int256,uint256)": {
        "notice": "**************************** Methods*****************************"
      }
    },
    "notice": "Contract responsible for the encapsulating the primitive implementation of what a decentralized twitter would look like.  At a high level, this involves creating new metadata entries (i.e. users and posts) and getting said metadata. Notice, metadata is used here, as only reference values are stored on the blockchain, while the actual content is stored on IPFS."
  }
}