{
  "contractName": "DecentralizedTwitter",
  "abi": [
    {
      "anonymous": false,
      "inputs": [
        {
          "indexed": false,
          "internalType": "uint256",
          "name": "userId",
          "type": "uint256"
        },
        {
          "indexed": false,
          "internalType": "address",
          "name": "username",
          "type": "address"
        },
        {
          "indexed": false,
          "internalType": "bool",
          "name": "exists",
          "type": "bool"
        }
      ],
      "name": "UserCreated",
      "type": "event"
    },
    {
      "constant": true,
      "inputs": [],
      "name": "name",
      "outputs": [
        {
          "internalType": "string",
          "name": "",
          "type": "string"
        }
      ],
      "payable": false,
      "stateMutability": "view",
      "type": "function"
    },
    {
      "constant": false,
      "inputs": [
        {
          "internalType": "int256",
          "name": "postId",
          "type": "int256"
        },
        {
          "internalType": "uint256",
          "name": "userId",
          "type": "uint256"
        }
      ],
      "name": "createPost",
      "outputs": [],
      "payable": false,
      "stateMutability": "nonpayable",
      "type": "function"
    },
    {
      "constant": false,
      "inputs": [
        {
          "internalType": "uint256",
          "name": "userId",
          "type": "uint256"
        }
      ],
      "name": "createUser",
      "outputs": [],
      "payable": false,
      "stateMutability": "nonpayable",
      "type": "function"
    },
    {
      "constant": true,
      "inputs": [
        {
          "internalType": "int256",
          "name": "idForLastPostSeen",
          "type": "int256"
        }
      ],
      "name": "getRecentPosts",
      "outputs": [
        {
          "internalType": "int256[]",
          "name": "postIds",
          "type": "int256[]"
        },
        {
          "internalType": "uint256[]",
          "name": "userIds",
          "type": "uint256[]"
        }
      ],
      "payable": false,
      "stateMutability": "view",
      "type": "function"
    },
    {
      "constant": true,
      "inputs": [
        {
          "internalType": "int256",
          "name": "idForLastPostSeen",
          "type": "int256"
        },
        {
          "internalType": "uint256",
          "name": "userId",
          "type": "uint256"
        }
      ],
      "name": "getRecentPostsForUser",
      "outputs": [
        {
          "internalType": "int256[]",
          "name": "postIds",
          "type": "int256[]"
        },
        {
          "internalType": "uint256[]",
          "name": "userIds",
          "type": "uint256[]"
        }
      ],
      "payable": false,
      "stateMutability": "view",
      "type": "function"
    },
    {
      "constant": true,
      "inputs": [
        {
          "internalType": "int256",
          "name": "idForPostBeingSearched",
          "type": "int256"
        }
      ],
      "name": "getPost",
      "outputs": [
        {
          "internalType": "int256",
          "name": "postId",
          "type": "int256"
        },
        {
          "internalType": "uint256",
          "name": "userId",
          "type": "uint256"
        }
      ],
      "payable": false,
      "stateMutability": "view",
      "type": "function"
    },
    {
      "constant": true,
      "inputs": [],
      "name": "getUser",
      "outputs": [
        {
          "internalType": "uint256",
          "name": "userId",
          "type": "uint256"
        },
        {
          "internalType": "address",
          "name": "username",
          "type": "address"
        },
        {
          "internalType": "bool",
          "name": "exists",
          "type": "bool"
        }
      ],
      "payable": false,
      "stateMutability": "view",
      "type": "function"
    }
  ],
  "bytecode": "0x60806040526040518060400160405280601481526020017f446563656e7472616c697a6564547769747465720000000000000000000000008152506000908051906020019061004f929190610062565b5034801561005c57600080fd5b50610107565b828054600181600116156101000203166002900490600052602060002090601f016020900481019282601f106100a357805160ff19168380011785556100d1565b828001600101855582156100d1579182015b828111156100d05782518255916020019190600101906100b5565b5b5090506100de91906100e2565b5090565b61010491905b808211156101005760008160009055506001016100e8565b5090565b90565b610cf6806101166000396000f3fe608060405234801561001057600080fd5b506004361061007d5760003560e01c80635be2eb131161005b5780635be2eb1314610223578063832880e7146102ee57806398b926c31461034a578063ffbdff66146103825761007d565b806306fdde031461008257806308c71f2f146101055780632b7eb8b61461014e575b600080fd5b61008a6103b0565b6040518080602001828103825283818151815260200191508051906020019080838360005b838110156100ca5780820151818401526020810190506100af565b50505050905090810190601f1680156100f75780820380516001836020036101000a031916815260200191505b509250505060405180910390f35b6101316004803603602081101561011b57600080fd5b810190808035906020019092919050505061044e565b604051808381526020018281526020019250505060405180910390f35b6101846004803603604081101561016457600080fd5b810190808035906020019092919080359060200190929190505050610529565b604051808060200180602001838103835285818151815260200191508051906020019060200280838360005b838110156101cb5780820151818401526020810190506101b0565b50505050905001838103825284818151815260200191508051906020019060200280838360005b8381101561020d5780820151818401526020810190506101f2565b5050505090500194505050505060405180910390f35b61024f6004803603602081101561023957600080fd5b8101908080359060200190929190505050610547565b604051808060200180602001838103835285818151815260200191508051906020019060200280838360005b8381101561029657808201518184015260208101905061027b565b50505050905001838103825284818151815260200191508051906020019060200280838360005b838110156102d85780820151818401526020810190506102bd565b5050505090500194505050505060405180910390f35b6102f6610564565b604051808481526020018373ffffffffffffffffffffffffffffffffffffffff1673ffffffffffffffffffffffffffffffffffffffff16815260200182151515158152602001935050505060405180910390f35b6103806004803603604081101561036057600080fd5b810190808035906020019092919080359060200190929190505050610653565b005b6103ae6004803603602081101561039857600080fd5b8101908080359060200190929190505050610768565b005b60008054600181600116156101000203166002900480601f0160208091040260200160405190810160405280929190818152602001828054600181600116156101000203166002900480156104465780601f1061041b57610100808354040283529160200191610446565b820191906000526020600020905b81548152906001019060200180831161042957829003601f168201915b505050505081565b600080610459610c6e565b60405180604001604052807fffffffffffffffffffffffffffffffffffffffffffffffffffffffffffffffff81526020016000815250905060008090505b6002805490508110156105145784600282815481106104b257fe5b906000526020600020906002020160000154141561050757600281815481106104d757fe5b90600052602060002090600202016040518060400160405290816000820154815260200160018201548152505091505b8080600101915050610497565b50806000015181602001519250925050915091565b6060806105388460008561093c565b80925081935050509250929050565b606080610557836001600061093c565b8092508193505050915091565b6000806000610571610c88565b600160003373ffffffffffffffffffffffffffffffffffffffff1673ffffffffffffffffffffffffffffffffffffffff168152602001908152602001600020604051806060016040529081600082015481526020016001820160009054906101000a900473ffffffffffffffffffffffffffffffffffffffff1673ffffffffffffffffffffffffffffffffffffffff1673ffffffffffffffffffffffffffffffffffffffff1681526020016001820160149054906101000a900460ff161515151581525050905080600001518160200151826040015193509350935050909192565b6000339050600160008273ffffffffffffffffffffffffffffffffffffffff1673ffffffffffffffffffffffffffffffffffffffff16815260200190815260200160002060010160149054906101000a900460ff1680156106f5575081600160008373ffffffffffffffffffffffffffffffffffffffff1673ffffffffffffffffffffffffffffffffffffffff16815260200190815260200160002060000154145b6106fe57600080fd5b610706610c6e565b604051806040016040528085815260200184815250905060028190806001815401808255809150509060018203906000526020600020906002020160009091929091909150600082015181600001556020820151816001015550505050505050565b600033905060001515600160008373ffffffffffffffffffffffffffffffffffffffff1673ffffffffffffffffffffffffffffffffffffffff16815260200190815260200160002060010160149054906101000a900460ff161515146107cd57600080fd5b6107d5610c88565b60405180606001604052808481526020018373ffffffffffffffffffffffffffffffffffffffff16815260200160011515815250905080600160008473ffffffffffffffffffffffffffffffffffffffff1673ffffffffffffffffffffffffffffffffffffffff1681526020019081526020016000206000820151816000015560208201518160010160006101000a81548173ffffffffffffffffffffffffffffffffffffffff021916908373ffffffffffffffffffffffffffffffffffffffff16021790555060408201518160010160146101000a81548160ff0219169083151502179055509050507f88002c8a3d903e0b9ca6d4d478f00f4936fd2c9a081e9b47a0360112029d037683836001604051808481526020018373ffffffffffffffffffffffffffffffffffffffff1673ffffffffffffffffffffffffffffffffffffffff16815260200182151515158152602001935050505060405180910390a1505050565b60608060006002805490501161095157600080fd5b600061095c86610b2f565b9050600061096b828787610bc1565b90506000809050816040519080825280602002602001820160405280156109a15781602001602082028038833980820191505090505b509450816040519080825280602002602001820160405280156109d35781602001602082028038833980820191505090505b5093505b600a811015610b1e57600115158715151480610a10575085600284815481106109fc57fe5b906000526020600020906002020160010154145b15610a8a5760028381548110610a2257fe5b906000526020600020906002020160000154858281518110610a4057fe5b60200260200101818152505060028381548110610a5957fe5b906000526020600020906002020160010154848281518110610a7757fe5b6020026020010181815250506001810190505b6001830392506000831415610b0c5760028381548110610aa657fe5b906000526020600020906002020160000154858281518110610ac457fe5b60200260200101818152505060028381548110610add57fe5b906000526020600020906002020160010154848281518110610afb57fe5b602002602001018181525050610b1e565b81811415610b1957610b1e565b6109d7565b848494509450505050935093915050565b60007fffffffffffffffffffffffffffffffffffffffffffffffffffffffffffffffff821415610b69576001600280549050039050610bbc565b60008090505b600280549050811015610bba5760028181548110610b8957fe5b906000526020600020906002020160000154831415610bad57600181039150610bba565b8080600101915050610b6f565b505b919050565b600080905060008490505b600a821015610c6657600115158415151480610c0557508260028281548110610bf157fe5b906000526020600020906002020160010154145b15610c11576001820191505b6001810390506000811415610c6157600115158415151480610c5057508260028281548110610c3c57fe5b906000526020600020906002020160010154145b15610c5c576001820191505b610c66565b610bcc565b509392505050565b604051806040016040528060008152602001600081525090565b604051806060016040528060008152602001600073ffffffffffffffffffffffffffffffffffffffff168152602001600015158152509056fea265627a7a72315820e5b92e7d8410091686e85b900744428fe5f7799b2b779e705e37a9c2865801b564736f6c63430005100032",
  "source": "pragma solidity >=0.4.22 <0.6.0;\r\n\r\n/**\r\n * TODO Handle case where post id already exists for creating post\r\n * TODO Handle case where user id already exists for creating user\r\n */\r\ncontract DecentralizedTwitter {\r\n  /******************************\r\n   * State\r\n   ******************************/\r\n\r\n  string public name = \"DecentralizedTwitter\";\r\n  mapping (address => User) users;\r\n  Post[] posts;\r\n\r\n  /******************************\r\n   * Structs\r\n   ******************************/\r\n\r\n  /**\r\n   * @description struct representing a post\r\n   */\r\n  struct Post {\r\n    int postId;\r\n    uint userId;\r\n  }\r\n\r\n  /**\r\n   * @description struct representing a user;\r\n   * for sake of simplicity, the address is used\r\n   * for username\r\n   */\r\n  struct User {\r\n    uint userId;\r\n    address username;\r\n    bool exists;\r\n  }\r\n\r\n  /******************************\r\n   * Events\r\n   ******************************/\r\n\r\n  event UserCreated(\r\n    uint userId,\r\n    address username,\r\n    bool exists\r\n  );\r\n\r\n  /******************************\r\n   * Methods\r\n   ******************************/\r\n\r\n  function createPost(int postId, uint userId) public {\r\n    address sender = msg.sender;\r\n    require(users[sender].exists && users[sender].userId == userId);\r\n    Post memory newPost = Post(postId, userId);\r\n    posts.push(newPost);\r\n  }\r\n\r\n  function createUser(uint userId) public {\r\n    address sender = msg.sender;\r\n    require(users[sender].exists == false);\r\n    User memory newUser = User(userId, sender, true);\r\n    users[sender] = newUser;\r\n    emit UserCreated(userId, sender, true);\r\n  }\r\n\r\n  function getRecentPosts(int idForLastPostSeen) public view returns (int[] memory postIds, uint[] memory userIds) {\r\n    (postIds, userIds) = getPostsForFeed(idForLastPostSeen, true, 0);\r\n  }\r\n\r\n  function getRecentPostsForUser(int idForLastPostSeen, uint userId) public view returns (int[] memory postIds, uint[] memory userIds) {\r\n    (postIds, userIds) = getPostsForFeed(idForLastPostSeen, false, userId);\r\n  }\r\n\r\n  function getPost(int idForPostBeingSearched) public view returns (int postId, uint userId) {\r\n    Post memory post = Post(-1, 0); // default\r\n\r\n    for (uint i = 0; i < posts.length; i++) {\r\n      if (posts[i].postId == idForPostBeingSearched) {\r\n        post = posts[i];\r\n      }\r\n    }\r\n\r\n    return (post.postId, post.userId);\r\n  }\r\n\r\n  function getUser() public view returns (uint userId, address username, bool exists) {\r\n    User memory user = users[msg.sender];\r\n    return (user.userId, user.username, user.exists);\r\n  }\r\n\r\n  /******************************\r\n   * Helpers\r\n   ******************************/\r\n\r\n  function findIndexForPost(int idForLastPostSeen) private view returns (uint index) {\r\n    if (idForLastPostSeen == -1) {\r\n      index = posts.length - 1;\r\n    } else {\r\n      for (uint i = 0; i < posts.length; i++) {\r\n        if (idForLastPostSeen == posts[i].postId) {\r\n          index = i - 1;\r\n          break;\r\n        }\r\n      }\r\n    }\r\n  }\r\n\r\n  function getNumberOfPostsForUser(uint indexForPost, bool feedIsHome, uint userId) private view returns (uint numberOfPosts) {\r\n    numberOfPosts = 0;\r\n    uint i = indexForPost;\r\n\r\n    while (numberOfPosts < 10) {\r\n      if (feedIsHome == true || posts[i].userId == userId) {\r\n        numberOfPosts = numberOfPosts + 1;\r\n      }\r\n      i = i - 1;\r\n      if (i == 0) {\r\n        if (feedIsHome == true || posts[i].userId == userId) {\r\n          numberOfPosts = numberOfPosts + 1;\r\n        }\r\n        break;\r\n      }\r\n    }\r\n  } \r\n\r\n  function getPostsForFeed(int idForLastPostSeen, bool feedIsHome, uint userId) private view returns (int[] memory postIds, uint[] memory userIds) {\r\n    // only run this if there are posts; hack for when there are no posts in the db\r\n    require(posts.length > 0);\r\n    \r\n    uint index = findIndexForPost(idForLastPostSeen);\r\n    uint numberOfPosts = getNumberOfPostsForUser(index, feedIsHome, userId); // used to get the length for the memory arrays =(\r\n\r\n    uint counter = 0; // 0 based for index purposes\r\n    postIds = new int[](numberOfPosts);\r\n    userIds = new uint[](numberOfPosts);\r\n\r\n    /**\r\n     * Run loop until the number of posts gotten is 10 or\r\n     * until we reach the \"genisis\" post\r\n     */\r\n    while (counter < 10) {\r\n      if (feedIsHome == true || posts[index].userId == userId) {\r\n        postIds[counter] = posts[index].postId;\r\n        userIds[counter] = posts[index].userId;\r\n        counter = counter + 1;\r\n      }\r\n      index = index - 1;\r\n      if (index == 0) {\r\n        postIds[counter] = posts[index].postId; // HACK\r\n        userIds[counter] = posts[index].userId; // HACK\r\n        break;\r\n      }\r\n      // hack for the specific user use case\r\n      if (counter == numberOfPosts) {\r\n        break;\r\n      }\r\n    }\r\n\r\n    return (postIds, userIds);\r\n  }\r\n}",
  "sourcePath": "C:/Users/bguillen/Documents/sandbox/dapp-pocs/d-twitter/contracts/DecentralizedTwitter.sol",
  "compiler": {
    "name": "solc",
    "version": "0.5.16+commit.9c3226ce.Emscripten.clang"
  },
  "schemaVersion": "3.2.3",
  "updatedAt": "2021-07-26T13:44:00.736Z",
  "networkType": "ethereum",
  "devdoc": {
    "methods": {}
  },
  "userdoc": {
    "methods": {
      "createPost(int256,uint256)": {
        "notice": "**************************** Methods*****************************"
      }
    },
    "notice": "TODO Handle case where post id already exists for creating post TODO Handle case where user id already exists for creating user"
  }
}